:020000040000FA
:04000000FEEFFFF020
:020000040001F9
:10FEF40012001200800EBE6E900E03011A6F540E93
:10FF04001B6F1200000E0401006F000EC66EA00EDF
:10FF140000017F6F120001EE01F10E0EEE6AE80699
:10FF2400FDE10001B8EFFFF0000E096E000E0A6E4D
:10FF3400000E0B6E000E0C6E000E056E000E066EAB
:10FF4400000E076E000E086E120003011A9F0F1CAC
:10FF5400116E101C126E12C511F5126A1150196F30
:10FF64000F50FF0A186FB19E1A8F1200048E7AEC9C
:10FF7400FFF096ECFFF084ECFFF07CECFFF0DAECA1
:10FF8400FFF0BE9E7BECFFF0000E106E040E0F6EB1
:10FF9400A7ECFFF0B1AED1EFFFF0D3EFFFF0CCEF61
:10FFA400FFF0DAECFFF0BE8EC1EFFFF0FEEFFFF0E2
:10FFB4000D50D8A4E0EFFFF0E2EFFFF0F1EFFFF017
:10FFC400FE0E00017D19D8A4EAEFFFF0ECEFFFF07C
:10FFD400EEEFFFF0010E0D6E7D2BFDEFFFF0000143
:10FFE4007D05D8A4F8EFFFF0FAEFFFF0FCEFFFF087
:0CFFF400000E0D6E7D0712008DEFFFF077
:020000040020DA
:10000000FF0FFF0FFF0FFF0FFF0FFF0FFF0FFF0F80
:10001000FF0FFF0FFF0FFF0FFF0FFF0FFF0FFF0F70
:020000040030CA
:0A0000008CFEFFFC9FFFFFFFFFFFD7
:00000001FF
