:020000040000FA
:04000000FEEFFFF020
:020000040001F9
:10FF3C0012001200120001EE01F1120EEE6AE80638
:10FF4C00FDE10001C7EFFFF0000E0401006F000E91
:10FF5C00C66E800EBE6E200E081B200EC716120039
:10FF6C00000E0D6E000E0E6E000E0F6E000E106E5B
:10FF7C00000E096E000E0A6E000E0B6E000E0C6E5B
:10FF8C001200088E9EECFFF0B6ECFFF0AAECFFF02E
:10FF9C00A0ECFFF0D8ECFFF09FECFFF0D0EFFFF0FF
:10FFAC00FEEFFFF01150D8A4DEEFFFF0E0EFFFF012
:10FFBC00F4EFFFF0CFAAE5EFFFF0E7EFFFF0F4EF7F
:10FFCC00FFF0BE28C009BE6E010E0126000E0222F3
:10FFDC0003220422010E116EFDEFFFF0CFBAF9EFF0
:10FFEC00FFF0FBEFFFF0FDEFFFF0000E116E1200C3
:04FFFC00A1EFFFF082
:020000040020DA
:10000000FF0FFF0FFF0FFF0FFF0FFF0FFF0FFF0F80
:10001000FF0FFF0FFF0FFF0FFF0FFF0FFF0FFF0F70
:020000040030CA
:0A0000008CFEFFFC9FFFFFFFFFFFD7
:00000001FF
