:020000040000FA
:04000000FEEFFFF020
:020000040001F9
:10FF0C0012001200000E0401006F000EC66E000EEF
:10FF1C00BE6E1200800EBE6E900E03011A6F540E50
:10FF2C001B6F120001EE01F10F0EEE6AE806FDE107
:10FF3C000001DEEFFFF0000E096E000E0A6E000EDF
:10FF4C000B6E000E0C6E000E056E000E066E000E93
:10FF5C00076E000E086E120003011A9F101C126E21
:10FF6C00111C136E13C512F5136A1250196F105031
:10FF7C00FF0A186FB19E1A8F12000D4A0E2A6100EB
:10FF8C00F8F210F5C00E1016F40E0D1806E10E0462
:10FF9C00D8A4D3EFFFF0D5EFFFF0DDEFFFF0000EAC
:10FFAC000E6E000E0D6E010E101A010EBE1A12000E
:10FFBC00048E86ECFFF0A1ECFFF088ECFFF090ECE7
:10FFCC00FFF0C3ECFFF0BE9E87ECFFF0030E116E4A
:10FFDC00E80E106EB2ECFFF0B1AEF7EFFFF0F9EFF8
:10FFEC00FFF0F2EFFFF0BE8EE7EFFFF0FEEFFFF059
:04FFFC0098EFFFF08B
:020000040020DA
:10000000FF0FFF0FFF0FFF0FFF0FFF0FFF0FFF0F80
:10001000FF0FFF0FFF0FFF0FFF0FFF0FFF0FFF0F70
:020000040030CA
:0A0000008CFEFFFC9FFFFFFFFFFFD7
:00000001FF
