:020000040000FA
:04000000FEEFFFF020
:020000040001F9
:10FEB80012001200000E0401006F000EC66E000E44
:10FEC800BE6E1200800EBE6E900E03011A6F540EA5
:04FED8001B6F12008A
:10FEDD000001020408102021222428303132343848
:10FEED00393A3C3D3E3F3E3C383020000E246E00FA
:10FEFD000E256E000E266E000E276E000E206E0073
:10FF0D000E216E000E226E000E236E120003011ADA
:10FF1D009F2C1C2E6E2D1C2F6E2FC52EF52F6A2E8D
:10FF2D0050196F2C50FF0A186FB19E1A8F1200DDF9
:10FF3D000EF66EFE0EF76E010EF86E01EE01F1106B
:10FF4D00EE1BF00900F5C4EEF4E550E150FAE101C5
:10FF5D00EE1CF1100EEE6AE806FDE10001B7EFFFB1
:10FF6D00F01F8E5CECFFF07CECFFF05EECFFF066BA
:10FF7D00ECFFF0D7ECFFF0BE9E5DECFFF0030E2D15
:10FF8D006EE80E2C6E8DECFFF0B1AED0EFFFF0D21F
:10FF9D00EFFFF0CBEFFFF0BE8EC0EFFFF0FEEFFFF7
:10FFAD00F0FA0E28182910D8A4DFEFFFF0E1EFFFCB
:10FFBD00F0FBEFFFF01B0E2A18D8A4E8EFFFF0EAD4
:10FFCD00EFFFF0ECEFFFF0000E2A6E010E2A24D9A0
:10FFDD006EDA6A050EDA22DF50BE6E2A2A000E296D
:10FFED006E000E286EFDEFFFF0284A292A12009EA2
:03FFFD00EFFFF023
:020000040020DA
:10000000FF0FFF0FFF0FFF0FFF0FFF0FFF0FFF0F80
:10001000FF0FFF0FFF0FFF0FFF0FFF0FFF0FFF0F70
:020000040030CA
:0A0000008CFEFFFC9FFFFFFFFFFFD7
:00000001FF
