:020000040000FA
:04000000FEEFFFF020
:020000040001F9
:10FF720012001200120001EE01F10D0EEE6AE80607
:10FF8200FDE10001EDEFFFF0CFAACAEFFFF0CCEFE9
:10FF9200FFF0CFEFFFF0BE288009BE6E1200000E08
:10FFA2000401006F000EC66E800EBE6E300E081B7E
:10FFB200300EC71A1200000E096E000E0A6E000EF5
:10FFC2000B6E000E0C6E000E056E000E066E000E1D
:10FFD200076E000E086E1200048EB9ECFFF0DCEC26
:10FFE200FFF0D0ECFFF0BBECFFF0C5ECFFF0BAEC99
:0EFFF200FFF0F6EFFFF0FEEFFFF0BCEFFFF0C8
:020000040020DA
:10000000FF0FFF0FFF0FFF0FFF0FFF0FFF0FFF0F80
:10001000FF0FFF0FFF0FFF0FFF0FFF0FFF0FFF0F70
:020000040030CA
:0A0000008CFEFFFC9FFFFFFFFFFFD7
:00000001FF
