:020000040000FA
:04000000FEEFFFF020
:020000040001F9
:10FF3E00120012001200000E0401006F000EC66EB9
:10FF4E00800EBE6E120001EE01F10D0EEE6AE80695
:10FF5E00FDE10001C4EFFFF0000E096E000E0A6E07
:10FF6E00000E0B6E000E0C6E000E056E000E066E71
:10FF7E00000E076E000E086E1200048E9FECFFF04E
:10FF8E00B3ECFFF0A2ECFFF0A1ECFFF0D5ECFFF02C
:10FF9E00A0ECFFF0CDEFFFF0FEEFFFF0C00E0E6E07
:10FFAE005E0E0F6E040E106E000E116EE4EFFFF07B
:10FFBE000E06000E0F5A105A115A0E500F10101036
:10FFCE001110D8A4EDEFFFF0EFEFFFF0DFEFFFF031
:10FFDE00BF0EBE18D8A4F6EFFFF0F8EFFFF0FCEF5F
:10FFEE00FFF0800EBE6EFDEFFFF0BE2A1200AAEFEC
:02FFFE00FFF012
:020000040020DA
:10000000FF0FFF0FFF0FFF0FFF0FFF0FFF0FFF0F80
:10001000FF0FFF0FFF0FFF0FFF0FFF0FFF0FFF0F70
:020000040030CA
:0A0000008CFEFFFC9FFFFFFFFFFFD7
:00000001FF
