:020000040000FA
:04000000FEEFFFF020
:020000040001F9
:10FF660012001200000E0401006F000EC66E120091
:10FF7600800EBE6E480E03011A6F540E1B6F1200E0
:10FF860001EE01F10D0EEE6AE806FDE10001EDEF6E
:10FF9600FFF06100F8F20FF5C00E0F166100F8F2DF
:10FFA6000EF53F0E0E160E280F1A61003CF4BEF435
:10FFB6001200000E096E000E0A6E000E0B6E000E89
:10FFC6000C6E000E056E000E066E000E076E000E1D
:10FFD600086E1200048EB3ECFFF0DCECFFF0B5EC1B
:10FFE600FFF0BBECFFF0CCECFFF0B4ECFFF0F6EF6B
:0AFFF600FFF0FEEFFFF0C3EFFFF095
:020000040020DA
:10000000FF0FFF0FFF0FFF0FFF0FFF0FFF0FFF0F80
:10001000FF0FFF0FFF0FFF0FFF0FFF0FFF0FFF0F70
:020000040030CA
:0A0000008CFEFFFC9FFFFFFFFFFFD7
:00000001FF
